S02000004D6172696F5F4C696265726F5F4D53535F434D335F6170702E737265633C
S315200000000000012091010020DB020020DD020020FB
S31520000010DF020020E1020020E302002000000000B1
S31520000020000000000000000000000000E5020020A3
S31520000030E702002000000000E9020020EB02002079
S31520000040ED020020EF020020052C0020292C0020A4
S31520000050F5020020F7020020F9020020FB02002012
S31520000060FD020020FF0200200103002003030020E0
S3152000007005030020893100202D0600200B030020D7
S315200000800D0300200F03002011030020130300207E
S315200000901503002017030020190300201B0300204E
S315200000A01D0300201F03002021030020230300201E
S315200000B02503002027030020290300202B030020EE
S315200000C02D0300202F0300203103002033030020BE
S315200000D03503002037030020390300203B0300208E
S315200000E03D0300203F03002041030020430300205E
S315200000F04503002047030020490300204B0300202E
S315200001004D0300204F0300205103002053030020FD
S3152000011055030020570300205903002059050020CD
S3152000012085050020B1050020DD05002063030020A1
S315200001306503002067030020690300206B0300206D
S315200001406D0300206F03002071030020730300203D
S315200001507503002077030020790300207B0300200D
S315200001607D0300207F0300208103002083030020DD
S315200001708503002087030020890300208B030020AD
S315200001808D0300208F0300200000000000000000E7
S315200001904FF0000BDFF81A020068DFF81212096828
S315200001A001F0030100F01C00142801D14BF0020BD2
S315200001B0002901D04BF0010BBBF1000F0DD07E487A
S315200001C07E49DFF8CE21DFF8CA31DFF8C641DFF8F5
S315200001D0C251884218BF3CC0FBD1794880470BF0FA
S315200001E0020ABAF1000F0CD0DFF8BA01DFF8BA1113
S315200001F002680B680FB44FF000024FF0FF03026055
S315200002000B607048704A714B022808D1DFF88A11BA
S315200002100A60DFF88E110A60DFF882110B60012870
S3152000022008D1DFF87A110A60DFF876110A60DFF864
S315200002306A110B606648002809D166486649674AF4
S3152000024000F03AF866486749674A00F035F867488B
S315200002506749684A00F030F8674868495A4A5A4B55
S31520000260594C594D884218BF3CC0FBD1BBF1000FF9
S3152000027016D063486349DFF81E21DFF81A31DFF80C
S315200002801641DFF81251884218BF3CC0FBD10BF053
S31520000290020ABAF1000F03D00FBC02600B60000007
S315200002A0DFF864010FF2030E00474FF000004FF015
S315200002B00001DFF858F1FEE7F8B588420CD0521A53
S315200002C0121112F00F0F00D001329A421CBFF0C853
S315200002D0F0C103F10103F8D1F8BDFEE7FEE7FEE722
S315200002E0FEE7FEE7FEE7FEE7FEE7FEE7FEE7FEE7C0
S315200002F0FEE7FEE7FEE7FEE7FEE7FEE7FEE7FEE7B0
S31520000300FEE7FEE7FEE7FEE7FEE7FEE7FEE7FEE79F
S31520000310FEE7FEE7FEE7FEE7FEE7FEE7FEE7FEE78F
S31520000320FEE7FEE7FEE7FEE7FEE7FEE7FEE7FEE77F
S31520000330FEE7FEE7FEE7FEE7FEE7FEE7FEE7FEE76F
S31520000340FEE7FEE7FEE7FEE7FEE7FEE7FEE7FEE75F
S31520000350FEE7FEE7FEE7FEE7FEE7FEE7FEE7FEE74F
S31520000360FEE7FEE7FEE7FEE7FEE7FEE7FEE7FEE73F
S31520000370FEE7FEE7FEE7FEE7FEE7FEE7FEE7FEE72F
S31520000380FEE7FEE7FEE7FEE7FEE7FEE7FEE7FEE71F
S31520000390704700000000A2A2A2A2008003400880AD
S315200003A0034010800340308003403480034038806F
S315200003B0034018080240000000D000200000012061
S315200003C011040020010000000000000001000000D0
S315200003D00000000000000020000000209001002006
S315200003E0F0040020F0040020903C0020903C0020E7
S315200003F0903C0020203D0020203D00200041002090
S315200004000041002000D00020BD380020D507002064
S3152000041080B500AF00F038F84EF60053CEF2000358
S315200004204EF60052CEF20002526942F400725A6130
S31520000430FFF7AEFF80BD00BF80B483B000AF48F2A7
S315200004400003C4F20303D3F84C317B607A684FF67D
S3152000045002039A4206D04FF60203C0F201039A42E3
S3152000046004D007E04FF001033B6006E04FF00203A3
S315200004703B6002E04FF000033B603B68184607F103
S315200004800C07BD4680BC704780B582B000AFFFF731
S31520000490D3FF03467B607B68012B01D100F004F873
S315200004A007F10807BD4680BD80B400AF48F20003BF
S315200004B0C4F2030348F20002C4F20302D2F89820E1
S315200004C042F48072C3F8982048F20003C4F2030372
S315200004D048F20002C4F20302D2F8982022F0806289
S315200004E0C3F89820BD4680BC704700BF00000000BE
S315200004F043F62053C2F200031A780AB90120187075
S31520000500704700BF43F69040C2F2000008B503686A
S315200005102BB140F20003C0F2000303B1984708BD97
S3152000052080B400AF43F6E443C2F200031B684FF0E9
S315200005300B021A60BD4680BC704700BF80B400AF76
S3152000054044F20003C4F200034FF001021A61BFF324
S315200005504F8FBD4680BC704780B500AF4FF0050079
S3152000056003F01AF843F6E470C2F200004FF00001DF
S3152000057003F0FAF843F62353C2F200034FF00102C8
S315200005801A7080BD80B500AF4FF0060003F004F866
S3152000059043F6E470C2F200004FF0010103F0E4F8E4
S315200005A043F62553C2F200034FF001021A7080BDB4
S315200005B080B500AF4FF0070002F0EEFF43F6E4707F
S315200005C0C2F200004FF0020103F0CEF843F62653A4
S315200005D0C2F200034FF001021A7080BD80B500AF51
S315200005E04FF0080002F0D8FF43F6E470C2F2000094
S315200005F04FF0030103F0B8F801F03CF880BD00BFCE
S3152000060080B500AF4FF0000002F058FE80BD00BF5D
S3152000061080B500AF4FF0010002F050FE43F62453A0
S31520000620C2F200034FF001021A7080BD80B500AF00
S31520000630FFF784FF43F62153C2F200034FF0010275
S315200006401A7080BD80B483B000AF0346FB714EF2B2
S315200006500013CEF2000397F907204FEA5212F979D8
S3152000066001F01F014FF0010000FA01F143F82210BA
S3152000067007F10C07BD4680BC704700BF80B483B02D
S3152000068000AF0346FB714EF20013CEF2000397F93A
S3152000069007204FEA5212F97901F01F014FF00100AD
S315200006A000FA01F102F1200243F8221007F10C07AB
S315200006B0BD4680BC704700BF80B483B000AF034600
S315200006C0FB714EF20013CEF2000397F907204FEA92
S315200006D05212F97901F01F014FF0010000FA01F1E1
S315200006E002F1600243F8221007F10C07BD4680BCD8
S315200006F0704700BF80B582B000AF0346FB714FF054
S315200007000E00FFF7BBFF48F20003C4F2030348F2D2
S315200007100002C4F20302926C22F040029A6444F270
S315200007200003C4F200034FF000025A6540F20003B2
S31520000730C4F208234FF00002C3F8802140F20003E0
S31520000740C4F208234FF00002C3F8882140F20003C8
S31520000750C4F20823FA79C3F8842144F20003C4F2D0
S3152000076000034FF001021A614FF00E00FFF7A4FFBD
S3152000077007F10807BD4680BD80B400AF40F20003F4
S31520000780C4F208234FF00102C3F88021BD4680BC85
S31520000790704700BF80B483B000AF786044F2000396
S315200007A0C4F200037A689A6007F10C07BD4680BC44
S315200007B0704700BF80B500AF40F20003C4F20823A3
S315200007C04FF00102C3F888214FF00E00FFF73AFFE1
S315200007D080BD00BF80B586B000AF48F20003C4F2EA
S315200007E0030348F20002C4F20302926C42F4803200
S315200007F09A6448F20003C4F2030348F20002C4F2EA
S315200008000302926C22F480329A6443F6DC60C2F2D0
S3152000081000004FF000014FF08C0203F03FF9FFF784
S315200008207FFE00F023FD43F6CC43C2F200031A6894
S3152000083043F6CC43C2F200031B681B684FEA1343FE
S315200008404FEA034343F0030313604FF000004FF0D9
S31520000850090101F0D7F94FF001004FF0050101F031
S31520000860D1F900E000BF43F62153C2F200031B7802
S31520000870002B19D043F6D463C2F200031B7883F011
S315200008800103DBB2002B0FD043F62153C2F2000343
S315200008904FF000021A7043F62853C2F200034FF0BD
S315200008A000021A7000F0EEF943F62253C2F200035A
S315200008B01B78002B16D043F6D463C2F200031B78B4
S315200008C083F00103DBB2002B0CD043F62253C2F295
S315200008D000034FF000021A7043F6F050C2F20000F7
S315200008E000F0DEFA43F62353C2F200031B78002BF6
S315200008F00FD043F6D463C2F200031B78002B08D036
S3152000090043F62353C2F200034FF000021A7000F0A0
S3152000091003FA43F62453C2F200031B78002B13D0AC
S3152000092043F6D463C2F200031B78002B0CD043F6A7
S315200009302453C2F200034FF000021A7000F03EFA70
S315200009400346184600F0ACFA43F62553C2F20003DC
S315200009501B78002B00F0628143F6D463C2F20003B9
S315200009601B7883F00103DBB2002B00F0578143F69E
S315200009702553C2F200034FF000021A7043F6F843E3
S31520000980C2F200031B681B687B607B6803F0805300
S31520000990002B00F09F8043F6FC43C2F200031B6845
S315200009A01B68BB60BB684FEA1343FB81BB683B8275
S315200009B043F6D063C2F200031B68002B43D0FB89A9
S315200009C0012B14BF00230123FB74FA7C3B8A1BB244
S315200009D06FEA03034FEAD37302EA0303002B2BD0FB
S315200009E043F6D063C2F200031B6803F1FF3243F6DD
S315200009F0D063C2F200031A604FF000004FF00901E5
S31520000A0001F0CAF943F6C863C2F200031B6803F17A
S31520000A10010243F6C863C2F200031A6043F6D063AC
S31520000A20C2F200031B68002B53D04FF000004FF09A
S31520000A30010101F0F5F84DE04FF000004FF0010103
S31520000A4001F0EEF846E043F69443C2F200031B6839
S31520000A5003F00103DBB2002B3CD043F62853C2F24D
S31520000A6000034FF0FF321A70BB684FEA1343DAB225
S31520000A7043F62853C2F200035A70BB684FEA136349
S31520000A80DAB243F62853C2F200039A70BB68DAB290
S31520000A9043F62853C2F20003DA70BB684FEA1323E9
S31520000AA0DAB243F62853C2F200031A714FF06400FB
S31520000AB001F0CCF900F0E6F843F69443C2F20003C5
S31520000AC01B6823F0010243F69443C2F200031A6026
S31520000AD000E000BF7B6803F00053002B00F09E80EF
S31520000AE043F60453C2F200031B681B68BB60BB6855
S31520000AF04FEA1343FB81BB683B8243F6D063C2F2C5
S31520000B0000031B68002B43D0FB89012B14BF002355
S31520000B100123FB74FA7C3B8A1BB26FEA03034FEA7C
S31520000B20D37302EA0303002B2BD043F6D063C2F221
S31520000B3000031B6803F1FF3243F6D063C2F20003C1
S31520000B401A604FF001004FF0090101F025F943F634
S31520000B50C863C2F200031B6803F1010243F6C863AF
S31520000B60C2F200031A6043F6D063C2F200031B6888
S31520000B70002B52D04FF001004FF0010101F050F848
S31520000B804CE04FF001004FF0010101F049F845E03B
S31520000B9043F69443C2F200031B6803F00203002BC2
S31520000BA03CD043F62853C2F200034FF0FF321A70AE
S31520000BB0BB684FEA1343DAB243F62853C2F2000366
S31520000BC05A70BB684FEA1363DAB243F62853C2F26F
S31520000BD000039A70BB68DAB243F62853C2F20003C8
S31520000BE0DA70BB684FEA1323DAB243F62853C2F20F
S31520000BF000031A714FF0640001F028F900F042F862
S31520000C0043F69443C2F200031B6823F0020243F624
S31520000C109443C2F200031A6000E000BF43F6265355
S31520000C20C2F200031B78002B3FF41CAE43F626537A
S31520000C30C2F200034FF000021A7006E043F600539A
S31520000C40C2F200031B681B687B6143F6F843C2F2BD
S31520000C5000031B681B6803F08073002BEED106E0AF
S31520000C6043F60853C2F200031B681B687B6143F6F8
S31520000C70F843C2F200031B681B6803F00073002BC5
S31520000C80EED1F0E580B582B002AF43F6D463C2F26E
S31520000C9000031B78002B3BD143F6F050C2F2000034
S31520000CA04FF000014FF0060202F0F8FE44F2700009
S31520000CB0C2F200004FF0000101F02CFB4FF00603BA
S31520000CC0009344F27000C2F2000043F62851C2F2AB
S31520000CD000014FF0C70243F6F053C2F2000301F0C1
S31520000CE0E5FB44F27000C2F200004FF0000101F073
S31520000CF095FB43F6F053C2F200031B78AA2B08D1CA
S31520000D0043F62253C2F200034FF001021A7000E0AC
S31520000D1000BFBD4680BD00BF80B500AF43F6D4639B
S31520000D20C2F200031B7883F00103DBB2002B43D110
S31520000D3043F6F850C2F200004FF000014FF0CD020A
S31520000D4002F0ACFE44F27000C2F200004FF0000147
S31520000D5001F0E0FA44F27000C2F2000001F0D6FC85
S31520000D6044F27000C2F200004FF0CD0101F0EAFC1F
S31520000D704FF0000040F20801C3F2000141F21402D4
S31520000D80C4F200024FF0CD0302F08CF843F6F8537C
S31520000D90C2F200034FF0010041F21001C4F200013B
S31520000DA01A464FF0CD0302F07DF844F27000C2F2ED
S31520000DB0000001F08FFC00E000BF80BD80B582B04E
S31520000DC000AF4FF000037B6056E07A6843F6F85395
S31520000DD0C2F200039B5CAA2B4AD143F6D863C2F227
S31520000DE000031B68132B38DC43F6D863C2F20003DA
S31520000DF019687B68D8B243F6DC62C2F200020B4661
S31520000E004FEAC303C1EB0303134402461A7043F6A9
S31520000E10D863C2F200031A6811460B464FEAC30391
S31520000E20C1EB030303F1010143F6DC63C2F20003C5
S31520000E30194402F1010243F6D863C2F200031A6094
S31520000E407A6843F6F853C2F200031344084619465B
S31520000E504FF0060202F05AFD11E043F6D863C2F2C3
S31520000E6000031A6843F6D863C2F200031A6006E04C
S31520000E707B6803F101037B607B688B2BA5D97B689C
S31520000E808C2B02D14FF0000305E07A6843F6F85325
S31520000E90C2F200031344184607F10807BD4680BD79
S31520000EA080B588B000AF78604FF000033B724FF0FA
S31520000EB000037B724FF00003BB724FF00003FB72FE
S31520000EC04FF00003FB604FF000033B614FF000033F
S31520000ED07B617B681B78AA2B0BD043F66873C2F222
S31520000EE000031B6803F1010243F66873C2F2000394
S31520000EF01A607B6803F101031B78FF2B40F02F81DA
S31520000F007B6803F102031B784FEA03227B6803F117
S31520000F1003031B7842EA03031A4643F6D063C2F260
S31520000F2000031A607B6803F104031B7803F00302B5
S31520000F3043F69443C2F200031A607B6803F104036C
S31520000F401B784FEAD303DBB203F001033B617B68D6
S31520000F5003F104031B784FEA1313DBB203F00103FA
S31520000F607B617B6803F104031B784FEA5313DBB2E2
S31520000F7003F00103FB607B6803F104031B784FEA4F
S31520000F809313DBB203F00103FB727B6803F10403C6
S31520000F901B784FEAD313BB727B6803F105031B78DA
S31520000FA04FEA1313DBB203F001037B727B6803F174
S31520000FB005031B784FEA5313DBB203F001033B72A0
S31520000FC03B7A002B1ED043F6D463C2F200031B7873
S31520000FD083F00103DBB2002B14D043F6CC43C2F2DC
S31520000FE000031A6843F6CC43C2F200031B681B6851
S31520000FF043F00103136043F6D463C2F200034FF0BB
S3152000100001021A707B7A002B1BD043F6D463C2F2FE
S3152000101000031B78002B14D043F6CC43C2F2000306
S315200010201A6843F6CC43C2F200031B681B6823F000
S315200010300103136043F6D463C2F200034FF00002AB
S315200010401A70BB7A002B1ED043F6D563C2F200037A
S315200010501B7883F00103DBB2002B14D043F6CC437C
S31520001060C2F200031A6843F6CC43C2F200031B689F
S315200010701B6843F00403136043F6D563C2F20003F2
S315200010804FF001021A70FB7A002B1BD043F6D56372
S31520001090C2F200031B78002B14D043F6CC43C2F2D5
S315200010A000031A6843F6CC43C2F200031B681B6890
S315200010B023F00403136043F6D563C2F200034FF016
S315200010C000021A70FB68002B00F0C4803B69002BDD
S315200010D020D04FF0000040F2094100F05DFE43F6BB
S315200010E0C863C2F200031B6803F1010243F6C8631A
S315200010F0C2F200031A6043F6D063C2F200031B68F3
S31520001100002B00F0A9804FF000004FF0010100F005
S3152000111087FDA6E07B69002B00F0A0804FF0010040
S3152000112040F2094100F038FE43F6C863C2F20003DC
S315200011301B6803F1010243F6C863C2F200031A607A
S3152000114043F6D063C2F200031B68002B00F08880B0
S315200011504FF001004FF0010100F062FD81E07B6855
S3152000116003F101031B784F2B7BD87B6803F1050322
S315200011701B781A467B6803F104031B784FEA032386
S315200011801A447B6803F103031B784FEA03431A448E
S315200011907B6803F102031B784FEA03631344BB61A8
S315200011A07B6803F101031B7803F14053BA691A6087
S315200011B043F6F843C2F200031B681B6803F440138E
S315200011C0002BF5D1BB694FEA1343BB83BB69FB8375
S315200011D043F6CC63C2F200031B78002B23D043F6E0
S315200011E0CC63C2F200034FF000021A707B6803F151
S315200011F001031B78142B08D1BA8BFB8B4FF0000010
S3152000120011461A4600F0F2FB0DE07B6803F101035C
S315200012101B78242B07D1BA8BFB8B4FF0010011468C
S315200012201A4600F0E3FB7B6803F101031B78102BC1
S3152000123005D07B6803F101031B78202B11D1FB8B92
S31520001240012B0ED143F6CC63C2F200034FF001020C
S315200012501A7006E000BF04E000BF02E000BF00E015
S3152000126000BF07F12007BD4680BD00BF80B584B012
S3152000127002AF00F0C9FA44F27000C2F2000000F09A
S3152000128057FE4FF00803009344F27000C2F20000AC
S315200012904FF000014FF000024FF0080300F092FFDC
S315200012A04FF00000FFF726FA40F64050C0F2030048
S315200012B0FFF770FAFFF77EFAFFF75EFA01F000FDFE
S315200012C04FF000004FF005014FF000024FF00A03E7
S315200012D001F046FD4FF001004FF004014FF490520B
S315200012E04FF00A0301F03CFD4FF0000040F201618F
S315200012F0C2F2000101F08EFF4FF0010040F21161B1
S31520001300C2F2000101F086FF00F084F803467B60FC
S315200013107B68002B00DAFEE74FF000004FF00C014F
S3152000132043F6840200F0C0FC4FF001004FF00C01A0
S3152000133043F6840200F0B8FC4FF000004FF00201A3
S315200013404FF0010200F0B0FC4FF001004FF0020117
S315200013504FF0010200F0A8FC00F0E4FA4FF0000084
S315200013604FF00D014FF4804200F09EFC4FF001003B
S315200013704FF00D014FF4804200F096FC4FF005002F
S3152000138002F0DAF843F6E470C2F200004FF00001F2
S3152000139002F0C2F94FF0060002F0CEF843F6E470F0
S315200013A0C2F200004FF0010102F0B6F94FF007003B
S315200013B002F0C2F843F6E470C2F200004FF00201D8
S315200013C002F0AAF94FF0000001F052FF4FF00100A1
S315200013D001F04EFF4FF00003184607F10807BD46FF
S315200013E080BD00BF80B485B000AF78604FF00003A9
S315200013F0FB604FF00003FB6003E0FB6803F1010391
S31520001400FB60FA687B689A42F7DB07F11407BD4652
S3152000141080BC704780B582B000AF43F69843C2F2D5
S3152000142000031B6818464FF0030100F0F3F803464B
S315200014307B6043F69C43C2F200031B6818464FF0BC
S31520001440080100F0E7F803467B607B68002B03DA8F
S315200014507B68A3F10C038AE043F6A043C2F20003A3
S315200014601B6818464FF0070100F0D4F803467B604E
S315200014707B68002B03DA7B68A3F1100377E043F641
S31520001480A443C2F200031B6818464FF0080100F07F
S31520001490C1F803467B607B68002B03DA7B68A3F1E7
S315200014A0140364E043F6A843C2F200031B681846FF
S315200014B04FF0300100F0AEF803467B607B68002BCE
S315200014C003DA7B68A3F1180351E043F6AC43C2F27A
S315200014D000031B6818464FF0000100F09BF80346F6
S315200014E07B607B68002B03DA7B68A3F11C033EE05C
S315200014F043F6AC43C2F200031B6818464FF00501C1
S3152000150000F03AF803467B607B68002B03DA7B68A1
S31520001510A3F120032BE043F6B443C2F200031B6879
S3152000152018464FF0110100F075F803467B607B6882
S31520001530002B03DA7B68A3F1240318E043F6AC43BF
S31520001540C2F200031B6818464FF0400100F062F813
S3152000155003467B607B68002B03DA7B68A3F12803B4
S3152000156005E043F6C443C2F200031B681B68184615
S3152000157007F10807BD4680BD80B584B000AF78600E
S315200015800B46FB70FA787B681A604FF41670FFF7EB
S3152000159029FF43F6C443C2F200031B681B68FB60A5
S315200015A0FB6803F00803002BF3D1FB6803F002036A
S315200015B0184607F11007BD4680BD00BF80B584B030
S315200015C000AF786039607B681B68DAB23B681A70B6
S315200015D04FF41670FFF706FF43F6C443C2F200032A
S315200015E01B681B68FB60FB6803F00803002BF3D124
S315200015F043F6C843C2F200031B681B68DAB23B6895
S315200016001A70FB6803F00103184607F11007BD4660
S3152000161080BD00BF80B584B000AF78600B46FB70FC
S31520001620FB7878681946FFF7A7FF0346002B02D1FF
S315200016304FF0FF3318E007F10F0378681946FFF7DC
S31520001640BDFF0346002B02D16FF001030CE0FB7BAC
S31520001650FA789A4202D06FF0020305E04FF0640058
S31520001660FFF7C0FE4FF00003184607F11007BD46EE
S3152000167080BD00BF80B5ADF5826D00AF4FF0000391
S3152000168087F805344FF00003A7F8063443F6B44331
S31520001690C2F200031B6818464FF00001FFF7BAFF9D
S315200016A00346C7F80834D7F80834002B02DAD7F8EF
S315200016B008345BE000F060F80346A7F806344FF0E4
S315200016C00003C7F80C341BE043F6C043C2F2000304
S315200016D01A68D7F80C1407F11003A3F10C030B4476
S315200016E010461946FFF76AFF0346002B02D16FF01A
S315200016F004033BE0D7F80C3403F10103C7F80C349C
S31520001700B7F80624D7F80C349A42DDDC43F6B0430A
S31520001710C2F200031A6807F5806303F10503104639
S315200017201946FFF74BFF0346002B02D16FF0050346
S315200017301CE000F021F80346A7F8063443F6B4432C
S31520001740C2F200031B6818464FF01101FFF762FF33
S315200017500346C7F80834D7F80834002B04DAD7F83C
S315200017600834A3F1080301E0B7F80634184607F554
S315200017708267BD4680BD00BF80B584B000AF4FF004
S3152000178000037B804FF000037B704FF000033B701B
S3152000179043F6B843C2F200031A6807F10103104664
S315200017A01946FFF70BFF0346002B02D16FF001030A
S315200017B025E07B784FEA03237B807B787B6043F6AA
S315200017C0BC43C2F200031A683B4610461946FFF78F
S315200017D0F5FE0346002B02D16FF002030FE03B78A3
S315200017E01A467B8813447B803B78BB607B684FEA34
S315200017F00323FB60FA68BB681344FB607B881846AA
S3152000180007F11007BD4680BD80B500AF01F0E8FDA9
S315200018104FF000004FF0050101F038FE4FF00100B7
S315200018204FF0050101F032FE4FF002004FF00501A6
S3152000183001F02CFE4FF003004FF0050101F026FECB
S315200018404FF004004FF0050101F020FE4FF0050097
S315200018504FF0420101F01AFE4FF006004FF0420110
S3152000186001F014FE4FF007004FF0420101F00EFE8A
S315200018704FF008004FF0420101F008FE4FF0000043
S315200018804FF0000101F020FE4FF001004FF0000163
S3152000189001F01AFE4FF002004FF0000101F014FE95
S315200018A04FF003004FF0000101F00EFE4FF0040050
S315200018B04FF0000101F008FE43F6E470C2F200008A
S315200018C040F20001C3F201014FF0020201F084FE52
S315200018D043F6E470C2F200004FF000014FF04002E0
S315200018E001F0F2FE43F6E470C2F200004FF001016F
S315200018F04FF0400201F0E8FE43F6E470C2F2000029
S315200019004FF002014FF0400201F0DEFE43F6E47094
S31520001910C2F200004FF003014FF0400201F0D4FE66
S3152000192080BD00BF80B500AF43F60C53C2F2000362
S31520001930DB884FF000004FF004011A4600F0B4F99E
S3152000194043F60C53C2F200039B884FF000004FF081
S3152000195005011A4600F0A8F943F60C53C2F200031B
S315200019605B884FF000004FF006011A4600F09CF904
S3152000197043F60C53C2F200031B884FF000004FF0D1
S3152000198007011A4600F090F943F61453C2F20003F9
S31520001990DB884FF001004FF004011A4600F084F96D
S315200019A043F61453C2F200039B884FF001004FF018
S315200019B005011A4600F078F943F61453C2F20003E3
S315200019C05B884FF001004FF006011A4600F06CF9D3
S315200019D043F61453C2F200031B884FF001004FF068
S315200019E007011A4600F060F980BD00BF80B485B0BB
S315200019F000AFF860B9607A60FB68002B02D0012B3B
S31520001A007DD0F9E0BB68042B1BD17B689AB243F6E4
S31520001A100C53C2F20003DA8043F6EC43C2F2000311
S31520001A201A6843F60C53C2F200039B884FEA03411F
S31520001A3043F60C53C2F20003DB8841EA030313602A
S31520001A40DAE0BB68052B1BD17B689AB243F60C53B0
S31520001A50C2F200039A8043F6EC43C2F200031A68EE
S31520001A6043F60C53C2F200039B884FEA034143F628
S31520001A700C53C2F20003DB8841EA03031360BBE088
S31520001A80BB68062B1BD17B689AB243F60C53C2F275
S31520001A9000035A8043F6E843C2F200031A6843F66D
S31520001AA00C53C2F200031B884FEA034143F60C5342
S31520001AB0C2F200035B8841EA030313609CE0BB6823
S31520001AC0072B40F098807B689AB243F60C53C2F2FB
S31520001AD000031A8043F6E843C2F200031A6843F66D
S31520001AE00C53C2F200031B884FEA034143F60C5302
S31520001AF0C2F200035B8841EA030313607CE0BB6803
S31520001B00042B1BD17B689AB243F61453C2F200030E
S31520001B10DA8043F6F443C2F200031A6843F61453FC
S31520001B20C2F200039B884FEA034143F61453C2F2E4
S31520001B300003DB8841EA030313605DE0BB68052BE5
S31520001B401BD17B689AB243F61453C2F200039A80E3
S31520001B5043F6F443C2F200031A6843F61453C2F262
S31520001B6000039B884FEA034143F61453C2F2000355
S31520001B70DB8841EA030313603EE0BB68062B1BD1DA
S31520001B807B689AB243F61453C2F200035A8043F696
S31520001B90F043C2F200031A6843F61453C2F200035C
S31520001BA01B884FEA034143F61453C2F200035B88B5
S31520001BB041EA030313601FE0BB68072B1CD17B6837
S31520001BC09AB243F61453C2F200031A8043F6F04346
S31520001BD0C2F200031A6843F61453C2F200031B88AC
S31520001BE04FEA034143F61453C2F200035B8841EAED
S31520001BF00303136000E000BF07F11407BD4680BC55
S31520001C00704700BF80B483B000AF786039604FF072
S31520001C100003184607F10C07BD4680BC704700BF7D
S31520001C2080B483B000AF786039607B68002B19D10F
S31520001C3043F6D043C2F200031B684FF000021A603D
S31520001C4043F6D443C2F200031B683A684FEA0242C5
S31520001C501A6043F6E043C2F200031B684FF4805239
S31520001C601A601BE07B68012B18D143F6D843C2F2D9
S31520001C7000031B684FF000021A6043F6DC43C2F2F1
S31520001C8000031B683A684FEA02421A6043F6E043B3
S31520001C90C2F200031B684FF400521A6007F10C07CA
S31520001CA0BD4680BC704700BF80B586B000AFF860E7
S31520001CB0B9607A60F868B9687A68FFF797FEFB68BA
S31520001CC0002B02D0012B32D062E043F6D043C2F281
S31520001CD000031B684FF001021A6043F6D443C2F298
S31520001CE000031B68BA684FEA02417A6841EA020299
S31520001CF01A6043F6E043C2F200031B684FF4805299
S31520001D001A604FF000037B6103E07B6903F1010356
S31520001D107B617B69092BF8DD43F6F843C2F20003A9
S31520001D201B681B6803F48013002BF5D130E043F6C3
S31520001D30D843C2F200031B684FF001021A6043F633
S31520001D40DC43C2F200031B68BA684FEA02417A6894
S31520001D5041EA02021A6043F6E043C2F200031B681E
S31520001D604FF400521A604FF000037B6103E07B6959
S31520001D7003F101037B617B69092BF8DD43F6F84308
S31520001D80C2F200031B681B6803F40013002BF5D175
S31520001D9007F11807BD4680BD80B485B000AF7860D6
S31520001DA039607B68002B02D0012B25D048E043F612
S31520001DB0D443C2F200031B683A681A6043F6E04334
S31520001DC0C2F200031B6841F210021A604FF00003B2
S31520001DD0FB6003E0FB6803F10103FB60FB68092B52
S31520001DE0F8DD43F6F843C2F200031B681B6803F4D0
S31520001DF08013002BF5D123E043F6DC43C2F2000327
S31520001E001B683A681A6043F6E043C2F200031B6877
S31520001E1042F220021A604FF00003FB6003E0FB68E9
S31520001E2003F10103FB60FB68092BF8DD43F6F84359
S31520001E30C2F200031B681B6803F40013002BF5D1C4
S31520001E4007F11407BD4680BC704700BF80B485B03B
S31520001E5000AF78604FF00003FB6003E0FB6803F1FE
S31520001E600103FB607A6813464FEA43031A44FB6872
S31520001E709A42F3DC07F11407BD4680BC704700BFC9
S31520001E8080B483B000AF0346FB714EF20013CEF24E
S31520001E90000397F907204FEA5212F97901F01F0142
S31520001EA04FF0010000FA01F143F8221007F10C0768
S31520001EB0BD4680BC704700BF80B483B000AF0346E8
S31520001EC0FB714EF20013CEF2000397F907204FEA7A
S31520001ED05212F97901F01F014FF0010000FA01F1C9
S31520001EE002F1200243F8221007F10C07BD4680BC00
S31520001EF0704700BF80B483B000AF0346FB714EF23B
S31520001F000013CEF2000397F907204FEA5212F9790F
S31520001F1001F01F014FF0010000FA01F102F1600209
S31520001F2043F8221007F10C07BD4680BC704700BF5E
S31520001F3080B584B000AF78607A6844F27003C2F24C
S31520001F4000039A4207D07A6843F6EC73C2F2000384
S31520001F509A4200D000BE7B681B795BB21846FFF719
S31520001F60ABFF78684FF000014FF0840201F096FD38
S31520001F707B684FF001025A624FF00003FB810DE0AF
S31520001F80FB897A6803F106034FEAC30313444FF033
S31520001F90FF325A60FB8903F10103FB81FB89072B82
S31520001FA0EED97A6844F27003C2F200039A4226D12F
S31520001FB07A6841F20003C4F2000313607B684FF095
S31520001FC002021A7148F20003C4F2030348F2000227
S31520001FD0C4F20302926C42F400729A644FF002003B
S31520001FE0FFF788FF48F20003C4F2030348F2000219
S31520001FF0C4F20302926C22F400729A6425E07A6895
S3152000200041F20003C4F2010313607B684FF0030220
S315200020101A7148F20003C4F2030348F20002C4F224
S315200020200302926C42F480629A644FF00300FFF739
S3152000203061FF48F20003C4F2030348F20002C4F22F
S315200020400302926C22F480629A647B681B687A6829
S315200020501268126822F000421A6007F11007BD4686
S3152000206080BD00BF80B58AB000AF78607B681B68F2
S315200020701B68FB607B681B689B693B617B681B68F0
S315200020805B687B617B681B689B6ABB617B681B689E
S315200020901B6BFB617B681B685B6B3B627B681B6809
S315200020A0DB697B627A6844F27003C2F200039A42CB
S315200020B02ED17A6841F20003C4F2000313607B68D4
S315200020C04FF002021A7148F20003C4F2030348F2E9
S315200020D00002C4F20302926C42F400729A644FF03A
S315200020E00200FFF707FF48F20003C4F2030348F299
S315200020F00002C4F20302926C22F400729A647B6896
S315200021001B687A681268126822F000421A602DE075
S315200021107A6841F20003C4F2010313607B684FF032
S3152000212003021A7148F20003C4F2030348F20002C4
S31520002130C4F20302926C42F480629A644FF0030068
S31520002140FFF7D8FE48F20003C4F2030348F2000268
S31520002150C4F20302926C22F480629A647B681B6844
S315200021607A681268126822F000421A60FB6823F02F
S315200021700103FB607B681B68FA681A607B681B6832
S315200021803A699A617B681B687A695A607B681B6822
S315200021907A681268126842F001021A607B681B682E
S315200021A0BA699A627B681B68FA691A637B681B683E
S315200021B03A6A5A637B681B687A6ADA6107F12807EC
S315200021C0BD4680BD80B586B000AFF8607A603B60C2
S315200021D00B46FB72FA6844F27003C2F200039A427D
S315200021E007D0FA6843F6EC73C2F200039A4200D095
S315200021F000BEFB7A072B00D900BE97F82030202B93
S3152000220000D900BE3B68012B00D800BE3B68B3F561
S31520002210007F00D900BE3B6803F00103002B00D0ED
S3152000222000BEFB681B795BB21846FFF745FEFB68CC
S315200022304FF0000283F88020FB681B68FA6812685A
S31520002240126822F001021A60FB681B68FA6812689D
S31520002250126842F002021A60FB681B68FA6812686C
S31520002260126842F001021A60FB7A072B47D87B6876
S31520002270002B0BD07B68B3F1007F07D07B68B3F1CE
S31520002280807F03D07B68B3F1407F0FD1FA7A7968DB
S3152000229040F20213C3F2004341EA0303F96802F154
S315200022A006024FEAC2020A4453600EE0FA7A7968BF
S315200022B040F20213C3F2000341EA0303F96802F174
S315200022C006024FEAC2020A445360FB7AFA6803F117
S315200022D006034FEAC303134497F820201A723B687B
S315200022E04FEA530303F1FF337B61FB7A7A69D2B25B
S315200022F0F96803F106034FEAC3030B445A72FB68DD
S315200023001B795BB21846FFF7BBFD07F11807BD46E0
S3152000231080BD00BF80B584B000AF78600B46FB70EF
S315200023207A6844F27003C2F200039A4207D07A68B0
S3152000233043F6EC73C2F200039A4200D000BE7B68DB
S315200023401B681B6803F00203002B00D100BEFB783C
S315200023507A6803F106034FEAC30313445B68B3F1BB
S31520002360FF3F00D100BE7B681B795BB21846FFF7A2
S31520002370A3FD7B681B689B6803F00403FB60FB6876
S31520002380002B02D07868FFF76DFE7B681B687A68A1
S315200023901268126822F001021A607B681A68FB78BC
S315200023A0796803F106034FEAC3030B445B681360A5
S315200023B07B681A68FB78796803F106034FEAC30342
S315200023C00B445B7A93617B681A68FB78796803F122
S315200023D006034FEAC3030B441B7A53607B681B68D2
S315200023E07A681268126842F001021A607B681B68DC
S315200023F07A681268D169FA784FF0010000FA02F281
S3152000240041EA0202DA617B681B795BB21846FFF764
S3152000241037FD07F11007BD4680BD00BF80B584B0EB
S3152000242000AF78600B46FB707A6844F27003C2F204
S3152000243000039A4207D07A6843F6EC73C2F200038F
S315200024409A4200D000BE7B681B681B6803F002031B
S31520002450002B00D100BE7B681B795BB21846FFF7C4
S315200024602BFD7B681B689B6803F00403FB60FB68FD
S31520002470002B02D07868FFF7F5FD7B681B687A6829
S315200024801268D169FA784FF0010000FA02F26FEA79
S31520002490020201EA0202DA617B681B795BB2184606
S315200024A0FFF7EEFC07F11007BD4680BD80B58EB064
S315200024B000AFF860B9603B601346FB804FF0000325
S315200024C07B834FF00003FB84FA6844F27003C2F268
S315200024D000039A4207D0FA6843F6EC73C2F200036F
S315200024E09A4200D000BEFB681B681B6803F00203FB
S315200024F0002B00D100BEFA88B7F840301344FB8683
S31520002500FB8E002B03D14FF001033B6201E0FB8ED3
S315200025103B62FB681B68FA681268D26A42F00C02BA
S31520002520DA62FB681B689B6803F00403FB62FB6AA4
S31520002530002B02D0F868FFF795FDFB681B68FA6848
S315200025401268126822F001021A60FB681968FB689B
S315200025501B681B6840F2FF02CFF6007203EA0202F4
S315200025603B6A4FEA03204FF60073C0F2FF0300EAEE
S31520002570030342EA03030B60FB681B684FF0080263
S315200025805A60FB681B68FA681268126842F00102FA
S315200025901A60FB681B689B6803F040033B6309E0F5
S315200025A0FB681B681B697B61FB681B689B6803F0E3
S315200025B040033B633B6B002BF2D04FF00003BB8301
S315200025C04FF00003FB83BA8BFB889A420FD2FB683D
S315200025D01B68B98BBA680A4412785A61BB8B03F11F
S315200025E00103BB83FB8C03F10103FB846AE0BA8BF6
S315200025F0FB8E9A4266D2FB681B684FF000025A6136
S31520002600BB8B03F10103BB83FB8C03F10103FB842A
S3152000261058E0FB681B689B6803F040033B633B6BF9
S31520002620002B1ED1FB681B681B697B617A8BFB889C
S315200026309A420ED3FA8BB7F840309A4205D2FA8BDB
S315200026403B6813447A69D2B21A70FB8B03F10103FB
S31520002650FB837B8B03F101037B83FB8C03F1FF332D
S31520002660FB84FB681B689B6803F48073BB62BB6AB0
S31520002670002B27D1FB8C032B24D8BA8BFB889A42BC
S315200026800FD2FB681B68B98BBA680A4412785A6164
S31520002690BB8B03F10103BB83FB8C03F10103FB849A
S315200026A010E0BA8BFB8E9A420CD2FB681B684FF067
S315200026B000025A61BB8B03F10103BB83FB8C03F140
S315200026C00103FB847A8BFB8E9A42A2D307F138074B
S315200026D0BD4680BD80B582B000AF78607B681B792F
S315200026E05BB21846FFF7E8FB7B681B687A681268BE
S315200026F0126842F001021A607B681B795BB21846A9
S31520002700FFF7BEFB07F10807BD4680BD80B582B046
S3152000271000AF78607B681B795BB21846FFF7CCFB6D
S315200027207B681B687A681268126822F001021A60B8
S315200027307B681B795BB21846FFF7A2FB07F10807F7
S31520002740BD4680BD80B582B000AF78600B467B80E9
S315200027507B681B795BB21846FFF7AEFB7B6819686E
S315200027607B681B681B6840F2FF02CFF6007203EA03
S3152000277002027B884FEA03204FF60073C0F2FF0364
S3152000278000EA030342EA03030B607B681B687A684E
S315200027901268126822F001021A607B681B684FF0EB
S315200027A008025A607B681B687A681268126842F0D1
S315200027B001021A607B681B795BB21846FFF760FB43
S315200027C007F10807BD4680BD80B485B000AF7860AC
S315200027D04FF00003FB600EE07B681B687A68916807
S315200027E07A6812690A4412785A617B681B6903F178
S315200027F001027B681A617B681B689B6803F48073FF
S31520002800002B05D17B681A697B68DB689A42E3D383
S315200028107B681A697B68DB689A421CD30EE07B686A
S315200028201B687A6851697A68D2690A4412785A61B3
S315200028307B68DB6903F101027B68DA617B681B68D0
S315200028409B6803F48073002B05D17B68DA697B686B
S315200028509B699A42E3D37B685B6A002B1FD07B6817
S315200028601A697B68DB689A4219D37B68DA697B68C8
S315200028709B699A4213D308E07B681B684FF00002DD
S315200028805A61FB6803F10103FB607B681B689B6848
S3152000289003F48073002B02D1FB681F2BECD907F1C0
S315200028A01407BD4680BC704780B584B000AF786001
S315200028B07B6893F88030022B15D10CE07B681B686F
S315200028C01B69FB607B685B6F002B04D07B685B6FAA
S315200028D0FA68104698477B681B689B6803F040039C
S315200028E0002BEBD032E07B6893F88030012B25D18A
S315200028F017E07B681B681B69FB607B681A6B7B682B
S31520002900DB6A9A4207D27B689A6A7B681B6B134400
S31520002910FA68D2B21A707B681B6B03F101027B68DE
S315200029201A637B681B689B6803F04003002BE0D08A
S315200029300CE07B681B681B69FB6000E000BF7B68BE
S315200029401B689B6803F04003002BF2D007F11007A9
S31520002950BD4680BD80B586B000AF78607B681B68B9
S3152000296003F120033B617A6844F27003C2F200034C
S315200029709A4207D07A6843F6EC73C2F200039A4271
S3152000298000D000BE3B691B6803F00203002B52D027
S315200029907B6893F88030022B15D10CE07B681B688E
S315200029A01B69FB607B685B6F002B04D07B685B6FC9
S315200029B0FA68104698477B681B689B6803F04003BB
S315200029C0002BEBD032E07B6893F88030012B25D1A9
S315200029D017E07B681B681B69FB607B681A6B7B684A
S315200029E0DB6A9A4207D27B689A6A7B681B6B134420
S315200029F0FA68D2B21A707B681B6B03F101027B68FE
S31520002A001A637B681B689B6803F04003002BE0D0A9
S31520002A100CE07B681B681B69FB6000E000BF7B68DD
S31520002A201B689B6803F04003002BF2D07B681B6871
S31520002A304FF00202DA603B691B6803F00103DBB248
S31520002A40002B12D07B6893F88030022B05D17B684F
S31520002A501B687A68926F5A6102E07868FFF7B4FEC5
S31520002A607B681B684FF00102DA603B691B6803F044
S31520002A701003002B23D07868FFF716FF7B681B6AAC
S31520002A80002B0BD07B681B6A7A68916A7A68126B76
S31520002A900846114698477868FFF796FE7B684FF000
S31520002AA001025A627B681B687A681268926A22F071
S31520002AB010029A627B681B684FF01002DA603B694D
S31520002AC01B6803F00403002B0FD07B681B687A6811
S31520002AD01268D26A42F00402DA627868FFF7C2FA14
S31520002AE07B681B684FF00402DA603B691B6803F0C1
S31520002AF00803002B31D07B681B687A681268D26A7B
S31520002B0042F00802DA627B6893F88030022B13D1F8
S31520002B107B681A687B681B68196840F2FF03CFF64A
S31520002B20007301EA030343F4807313607B681B6818
S31520002B307A68926F5A610BE07B6893F88030012B9C
S31520002B4006D17B684FF000021A617868FFF73CFED9
S31520002B507B681B684FF00802DA603B691B6803F04C
S31520002B602003002B49D07868FFF79EFE7B681B6BFD
S31520002B707B617B681B6A002B1CD07B684FF00002B0
S31520002B805A627B684FF000025A617B684FF0000260
S31520002B909A617B684FF00002DA617B681B684FF010
S31520002BA01002DA607B681B687A681268926A42F0C3
S31520002BB010029A627B684FF000021A617B681B68DC
S31520002BC07A681268D26A42F00C02DA627868FFF7F5
S31520002BD0FBFD7B684FF000021A637B68DB6F002BDE
S31520002BE006D07B68DB6F7A68926A104679699847C7
S31520002BF07B681B684FF02002DA6007F11807BD4694
S31520002C0080BD00BF684620F007018D4689B500AF1C
S31520002C1044F27000C2F20000FFF79CFEBD46BDE8FC
S31520002C2089408546704700BF684620F007018D46DB
S31520002C3089B500AF43F6EC70C2F20000FFF78AFEBA
S31520002C40BD46BDE889408546704700BF80B483B045
S31520002C5000AF0346FB714EF20013CEF2000397F944
S31520002C6007204FEA5212F97901F01F014FF00100B7
S31520002C7000FA01F143F8221007F10C07BD4680BC8B
S31520002C80704700BF80B483B000AF0346FB714EF29D
S31520002C900013CEF2000397F907204FEA5212F97972
S31520002CA001F01F014FF0010000FA01F102F160026C
S31520002CB043F8221007F10C07BD4680BC704700BFC1
S31520002CC080B582B000AF48F20003C4F2030348F295
S31520002CD00002C4F20302926C42F020029A644FF082
S31520002CE00D00FFF7CFFF48F20003C4F2030348F2BA
S31520002CF00002C4F20302926C22F020029A644FF082
S31520002D0000037B6024E07A6843F66C73C2F200030A
S31520002D104FF0000199547A6843F67473C2F20003A7
S31520002D204FF0000199547A6843F67C73C2F200038F
S31520002D304FF0000199547A6843F68473C2F2000377
S31520002D404FF0000143F822107B6803F101037B60FA
S31520002D507B68072BD7DD07F10807BD4680BD00BF7E
S31520002D6080B598B000AFBA600246FA730A46BA73C5
S31520002D70FB7143F68033C2F2000307F110011A46B5
S31520002D804FF05003084611461A4600F0BFFD43F2A5
S31520002D900003C4F20003F97B43F20002C4F20002EE
S31520002DA0F87B00F101004FEA40100244126842F01D
S31520002DB0200201F101014FEA41110B441A6043F24E
S31520002DC00003C4F20003F97B43F20002C4F20002BE
S31520002DD0F87B00F101004FEA40100244126822F00D
S31520002DE0200201F101014FEA41110B441A60BB7B1D
S31520002DF0142B1FD043F20003C4F20003F97B43F2E5
S31520002E000002C4F20002F87B00F101004FEA4010F4
S31520002E1002441068BA7B4FEA820207F1600C6244D2
S31520002E2052F8502C40EA020201F101014FEA411109
S31520002E300B441A6043F20003C4F20003F97B43F209
S31520002E400002C4F20002F87B00F101004FEA4010B4
S31520002E5002441068BA6840EA020201F101014FEA11
S31520002E6041110B441A6043F20003C4F20003F97BBC
S31520002E7043F20002C4F20002F87B00F101004FEA9F
S31520002E80401002441068FA794FEA823240EA020280
S31520002E9001F101014FEA41110B441A6007F1600765
S31520002EA0BD4680BD80B485B000AFB9607A60024669
S31520002EB0FA737B8043F20003C4F20003F97B43F2EA
S31520002EC00002C4F20002F87B00F101004FEA401034
S31520002ED00244126842F0100201F101014FEA411149
S31520002EE00B441A6043F20003C4F20003FA7B02F19A
S31520002EF001024FEA4212134403F104031B6803F054
S31520002F000103DBB2002B1FD043F20003C4F20003FF
S31520002F10F97B43F20002C4F20002F87B00F10100C3
S31520002F204FEA40100244126842F0800201F101018A
S31520002F304FEA41110B441A60FA7B43F67473C2F2CE
S31520002F4000034FF00001995443F20003C4F200033A
S31520002F50FA7B02F101024FEA4212134403F1040301
S31520002F601B6803F00203002B1FD043F20003C4F2B8
S31520002F700003F97B43F20002C4F20002F87B00F161
S31520002F8001004FEA40100244126842F4807201F1B7
S31520002F9001014FEA41110B441A60FA7B43F67C7318
S31520002FA0C2F200034FF00001995443F20003C4F229
S31520002FB00003FA7B02F101024FEA4212134403F1A5
S31520002FC004031B6803F00403002B34D0FA7B43F67A
S31520002FD06C73C2F200034FF000019954FA7B43F65A
S31520002FE07C73C2F200034FF00101995443F20003AF
S31520002FF0C4F20003FA7B4FEA4212134403F134036E
S31520003000BA681A6043F20003C4F20003FA7B4FEA5F
S315200030104212134403F138037A681A6043F200031C
S31520003020C4F20003F97B7A884FEA41110B4403F17D
S315200030303C031A6033E0FA7B43F66C73C2F200035A
S315200030404FF001019954FA7B43F67473C2F20003E0
S315200030504FF00101995443F20003C4F20003FA7BB6
S315200030604FEA4212134403F12803BA681A6043F266
S315200030700003C4F20003FA7B4FEA4212134403F121
S315200030802C037A681A6043F20003C4F20003F97B2A
S315200030907A884FEA41110B4403F130031A6043F258
S315200030A00003C4F20003F97B43F20002C4F20002DB
S315200030B0F87B00F101004FEA40100244126822F02A
S315200030C0100201F101014FEA41110B441A6007F188
S315200030D01407BD4680BC704780B485B000AF034658
S315200030E0FB804FF00003FB73FB8803F00303002BE8
S315200030F003D04FF00003FB733FE0FB8803F00C0383
S31520003100002B03D04FF00103FB7336E0FB8803F05E
S315200031103003002B03D04FF00203FB732DE0FB8816
S3152000312003F0C003002B03D04FF00303FB7324E00E
S31520003130FB8803F44073002B03D04FF00403FB738A
S315200031401BE0FB8803F44063002B03D04FF00503FC
S31520003150FB7312E0FB8803F44053002B03D04FF09F
S315200031600603FB7309E0FB8803F44043002B03D0DE
S315200031704FF00703FB7300E000BEFB7B184607F108
S315200031801407BD4680BC7047684620F007018D466F
S3152000319081B587B000AF43F67033C2F2000307F162
S315200031A0040C0FCB8CE80F0043F20003C4F200039B
S315200031B05B68BB82BB8A1846FFF78EFF0346FB750A
S315200031C0FB7D4FEA430307F11802134433F8143CFE
S315200031D06FEA03039AB2BB8A02EA0303BB82FA7D33
S315200031E043F68473C2F2000353F82230002B07D033
S315200031F0FA7D43F68473C2F2000353F822309847CF
S31520003200BB8A002BD6D107F11C07BD46BDE88140FD
S315200032108546704780B582B000AF03463960FB71A2
S31520003220FA7943F68473C2F20003396843F8221010
S3152000323043F20003C4F20003F97943F20002C4F218
S315200032400002F87900F101004FEA401002441268AA
S3152000325042F0400201F101014FEA41110B441A608C
S315200032604FF00D00FFF7F2FC07F10807BD4680BDC1
S3152000327080B582B000AF0346FB7143F20003C4F26F
S315200032800003F97943F20002C4F20002F87900F152
S3152000329001004FEA40100244126842F0400201F158
S315200032A001014FEA41110B441A604FF00D00FFF760
S315200032B0CDFC07F10807BD4680BD00BF80B483B0B2
S315200032C000AF0346FB7143F20003C4F20003F97911
S315200032D043F20002C4F20002F87900F101004FEA3D
S315200032E040100244126842F0800201F101014FEAC7
S315200032F041110B441A6043F20003C4F20003F9792A
S3152000330043F20002C4F20002F87900F101004FEA0C
S3152000331040100244126842F4807201F101014FEA22
S3152000332041110B441A6007F10C07BD4680BC70475B
S3152000333080B483B000AF0346FB714EF20013CEF289
S31520003340000397F907204FEA5212F97901F01F017D
S315200033504FF0010000FA01F143F8221007F10C07A3
S31520003360BD4680BC704700BF80B483B000AF034623
S31520003370FB714EF20013CEF2000397F907204FEAB5
S315200033805212F97901F01F014FF0010000FA01F104
S3152000339002F1200243F8221007F10C07BD4680BC3B
S315200033A0704700BF80B483B000AF0346FB714EF276
S315200033B00013CEF2000397F907204FEA5212F9794B
S315200033C001F01F014FF0010000FA01F102F1600245
S315200033D043F8221007F10C07BD4680BC704700BF9A
S315200033E080B582B000AF48F20003C4F2030348F26E
S315200033F00002C4F20302926C42F480129A6448F2EC
S315200034000003C4F2030348F20002C4F20302926CE2
S3152000341042F0F0729A644FF000037B6017E07A68FE
S3152000342043F65043C2F200039B5C5BB21846FFF79B
S315200034309BFF7A6843F65043C2F200039B5C5BB263
S315200034401846FFF7AFFF7B6803F101037B607B68BB
S315200034501F2BE4D948F20003C4F2030348F200020A
S31520003460C4F20302926C22F0F0729A6448F20003CE
S31520003470C4F2030348F20002C4F20302926C22F45F
S3152000348080129A6407F10807BD4680BD80B485B0D6
S3152000349000AF03463960FB71FB79FB60FB681F2B8D
S315200034A000D900BEFB681F2B08D8FA6843F6D03334
S315200034B0C2F2000353F822303A681A6007F1140763
S315200034C0BD4680BC704700BF80B485B000AF0246C1
S315200034D00B46FA71BB71FB79FB60FB681F2B00D989
S315200034E000BEFB681F2B22D843F20003C4F201035F
S315200034F0D3F88830BB60FB684FF0010202FA03F371
S315200035006FEA0303BA6802EA0303BB60BB7903F0E0
S315200035100102FB6802FA03F3BA6842EA0303BB60BE
S3152000352043F20003C4F20103BA68C3F8882007F106
S315200035301407BD4680BC704780B584B000AF0346F3
S31520003540FB71FB79FB60FB681F2B00D900BEFB6873
S315200035501F2B1DD8FA6843F6D033C2F2000353F866
S3152000356022301B68BB60FA6843F6D033C2F20003F0
S3152000357053F82230BA6842F008021A60FA6843F615
S315200035805043C2F200039B5C5BB21846FFF7D0FEA5
S3152000359007F11007BD4680BD80B485B000AF034655
S315200035A0FB71FB79FB60FB681F2B00D900BEFB6813
S315200035B01F2B0AD843F20003C4F20103FA684FF026
S315200035C0010101FA02F2C3F88020BFF34F8F07F101
S315200035D01407BD4680BC704780B586B000AFF86042
S315200035E0B9601346FB714FF00003FB74BB687B6127
S315200035F0FB68BA681A60FB68FA791A714FF0000303
S31520003600FB74BB687B610CE078694FF0000100F029
S315200036103DF97B6903F104037B61FB7C03F1010324
S31520003620FB74FB7C1F2BEFD9FB681B79012B0ED07B
S31520003630022B02D0002B1DD041E0FB681B6803F152
S31520003640800318464FF0FF3100F0F0F838E0FB68B1
S315200036501B6803F1800318464FF6FF7100F0FEF851
S31520003660FB681B6803F1840318464FF6FF7100F0D0
S31520003670F5F825E0FB681B6803F1800318464FF038
S31520003680FF0100F003F9FB681B6803F18403184669
S315200036904FF0FF0100F0FAF8FB681B6803F188037E
S315200036A018464FF0FF0100F0F1F8FB681B6803F1A4
S315200036B08C0318464FF0FF0100F0E8F800E000BE4A
S315200036C007F11807BD4680BD80B586B000AFF8600B
S315200036D00B467A60FB72FB7A1F2B00D900BEFB7A61
S315200036E01F2B14D8FB681B687B61FB7A4FEA830388
S315200036F07A6913447B617869796800F097F878696C
S3152000370000F096F802467B689A4200D000BE07F188
S315200037101807BD4680BD00BF80B584B000AF786075
S315200037200B46FB707B681B68FB60FB781F2B00D960
S3152000373000BEFB781F2B12D8FB784FEA8303FA686A
S315200037401344FB60F86800F0A3F80346BB60BB682F
S3152000375043F00803BB60F868B96800F097F807F1F2
S315200037601007BD4680BD00BF80B584B000AF78602D
S315200037700B46FB70FB784FF0010202FA03F3FB6065
S315200037807B681B79012B0DD0022B02D0002B1DD07C
S3152000379046E07B681B6803F180031846F96800F051
S315200037A045F83EE07B681B6803F180031846F968FC
S315200037B000F054F87B681B6803F18402FB684FEA2B
S315200037C013431046194600F049F82AE07B681B6827
S315200037D003F180031846F96800F058F87B681B68E7
S315200037E003F18402FB684FEA13231046194600F0C2
S315200037F04DF87B681B6803F18802FB684FEA134388
S315200038001046194600F042F87B681B6803F18C02CB
S31520003810FB684FEA13631046194600F037F800E0BC
S3152000382000BE07F11007BD4680BD00BF016070478E
S31520003830006870470EB503FA01F303EA0203016834
S315200038406FEA020201EA020141EA030101600EBDAC
S31520003850006800EA020020FA01F0704701807047F4
S31520003860008870470EB503FA01F303EA02030188C4
S315200038706FEA020201EA020141EA030101800EBD5C
S31520003880008800EA020020FA01F0704701707047B4
S31520003890007870470EB503FA01F303EA02030178B4
S315200038A06FEA020201EA020141EA030101700EBD3C
S315200038B0007800EA020020FA01F0704770B543F65E
S315200038C0884643F68845C2F20006C2F20005761BFA
S315200038D0B61006D0002455F8243001349847A64265
S315200038E0F9D843F6884543F68C46C2F20005C2F263
S315200038F00006761B00F0BCF9B61006D0002455F859
S31520003900243001349847A642F9D870BD032A2DE900
S31520003910F0070BD83AB1002311F803C000F803C012
S3152000392001339342F8D1BDE8F007704782180C4660
S31520003930034603E014F8011C03F8011C03F00306F8
S315200039401946A44601330134002EF3D11CF003049A
S31520003950634608BFC1EB020C68D06542C4F1040A75
S315200039600CEB050733464FEACA0A5CF805604FEAB6
S31520003970C408551A08E057F8044F264604FA0AF4F4
S3152000398049EA0404CC5004335C18032D26FA08F9BE
S31520003990A5F104050CEB0306EDDC002302E0F15C47
S315200039A0E154013319199142F9D3BCE753F8404C3D
S315200039B041F8404C53F83C4C41F83C4C53F8384CB9
S315200039C041F8384C53F8344C41F8344C53F8304CC9
S315200039D041F8304C53F82C4C41F82C4C53F8284CD9
S315200039E041F8284C53F8244C41F8244C53F8204CE9
S315200039F041F8204C53F81C4C41F81C4C53F8184CF9
S31520003A0041F8184C53F8144C41F8144C53F8104C08
S31520003A1041F8104C53F80C4C41F80C4C53F8084C18
S31520003A2041F8084C53F8044C41F8044C1C460D460A
S31520003A3040334031BCF13F0FACF1400CB6DC21469F
S31520003A402B46541B0FE051F8105C43F8105C51F8DC
S31520003A500C5C43F80C5C51F8085C43F8085C51F8A0
S31520003A60045C43F8045C0F2C0D469C4601F11001C2
S31520003A7003F11003A4F11004E5DCCCEB02010023D2
S31520003A8003E0EC584CF8034004335E19032903EB9A
S31520003A900C04A1F10401F4DC7FE700BF032AC9B2BC
S31520003AA030B407D822B10023C15401339342FBD14D
S31520003AB030BC704700EB020C034601E003F8011C02
S31520003AC003F003041A460133002CF7D14FF00133DB
S31520003AD0C2EB0C0403FB01F31FE042F8403C42F822
S31520003AE03C3C42F8383C42F8343C42F8303C42F800
S31520003AF02C3C42F8283C42F8243C42F8203C42F830
S31520003B001C3C42F8183C42F8143C42F8103C42F85F
S31520003B100C3C42F8083C42F8043C154640323F2C07
S31520003B20A4F14004D9DC2A46C5EB0C0407E042F890
S31520003B30103C42F80C3C42F8083C42F8043C15463E
S31520003B4010320F2CA4F11004F1DC2A46C5EB0C052B
S31520003B5001E042F8043C14460432032DA5F1040585
S31520003B60F7DC01E004F8011B6445FBD3A0E700BFA6
S31520003B7003000C003000C0000003000C003000C021
S31520003B800100000003008000010000010300800105
S31520003B9001000002030080020100000303008003ED
S31520003BA001000004030000040100800403008004D7
S31520003BB00300000501008005010000060300000641
S31520003BC0010080060300800601000007030080072D
S31520003BD00030014004300140083001400C300140E3
S31520003BE01030014014300140183001401C30014093
S31520003BF02030014024300140283001402C30014043
S31520003C003030014034300140383001403C300140F2
S31520003C104030014044300140483001404C300140A2
S31520003C205030014054300140583001405C30014052
S31520003C306030014064300140683001406C30014002
S31520003C407030014074300140783001407C300140B2
S31520003C5032333435363738393A3B3C3D3E3F4041A6
S31520003C6042434445464748494A4B4C4D4E4F505196
S31520003C70F8B500BFF8BC08BC9E467047F8B500BF33
S31520003C80F8BC08BC9E46704705050020F1040020BC
S31520003C900000000003000000A0110030B016003024
S31520003CA0C01600303012003070130030A0160030DD
S31520003CB0A01300308013003020170030301700305A
S31520003CC04017003000100030401000300C0000304B
S31520003CD01000003014000030200000302400003096
S31520003CE00000003008000030180000301C000030B2
S31520003CF0280000302C000030000000301800003072
S31520003D001C000030280000302C000030FFFFFFFF91
S31520003D10FFFFFFFFFFFFFFFF000000000000000085
S7052000019148
